:100000000C94D3020C943C0A0C941A030C941A031B
:100010000C941A030C941A030C941A030C941A03EC
:100020000C941A030C941A030C94BE200C94922185
:100030000C944A170C941A030C941A030C941A0388
:100040000C941A030C941A030C941A030C941A03BC
:100050000C941A030C9495170C941A030C941A031D
:100060000C941A030C941A030C941A030C941A039C
:100070000C941A030C941A030C941A030C941A038C
:100080000C941A030C941A030C941A030C941A037C
:100090000C941A030C941A030C941A030C941A036C
:1000A0000C941A030C941A030C941A0335001E00C6
:1000B0001F00200021002200230000002B4300002D
:1000C00014001A0008001500170000003942000053
:1000D00004001600070009000A0000000000356255
:1000E0001D001B0006001900050000002D61E30043
:1000F00000002E642C00000029440000240025008C
:10010000260027002D002E0000002A001C001800E9
:100110000C00120013002F00300031000B000D0006
:100120000E000F0033003400280000001100100002
:1001300036003700380000002A72000000002C4111
:10014000000050005100000052004F00010001006B
:100150000100010001000100010000000100000099
:100160000100010001000100010000000100000089
:100170000100010001000100010000000000010079
:100180000100010001000100010000000100010068
:10019000000001000100000001000000010001005A
:1001A00001000100010001000000010046004000C4
:1001B00041004200450001000100010048003D00EF
:1001C0003E003F00440001000100000049003A00E9
:1001D0003B003C0043000000010000000000010063
:1001E0000000010001000000010001000100010009
:1001F00001000100010001000100000001000000F9
:1002000001000100010001000100000001000000E8
:1002100001000100010001000100000000000100D8
:1002200001000100010001000100000001000100C7
:1002300000000100010000000100000001000100B9
:100240000100010001000100000001000100240084
:1002500025002600010001000100010056002100D8
:10026000220023002E0201000100000055001E00A4
:100270001F002000540000000100000000002700C3
:100280000000010001000000010001000100010068
:100290000100010001000100010000000100000058
:1002A0000100010001000100010000000100000048
:1002B0000100010001000100010000000000010038
:1002C0000100010001000100010000000100010027
:1002D0000000010001000000010000000100010019
:1002E0000100010001000100000001002F022402B2
:1002F000250226023002010001000100260221022F
:100300002202230227020100010000002F001E022A
:100310001F02200230000000010000000000270240
:1003200000000100010000000100010001000100C7
:1003300001000100010001000100000001000000B7
:100340003D042E014D0027014C0500000100000076
:100350004A002D014C004F00010000000000010088
:10036000A6000100A50001005000000001000100EE
:100370000000010001000000010000000100010078
:10038000010001000100010000004C00B6004B011B
:100390004E01B700130101000100AE0050005100F2
:1003A00052004F00A900010001000000AB00AC00AA
:1003B0004B004E00AA0000000100000000000100F8
:1003C0000000010001000000010001000100010027
:1003D0000100010001000100010000000100000017
:1003E0000100010001000100010000000100000007
:1003F00001000100010001000100000000000100F7
:1004000001000100010001000100000001000100E5
:1004100000000100010000000100000001000100D7
:1004200001000100010001000000010001000100C5
:1004300001000100010001000100010001000100B4
:1004400001000100010001000100000001000100A5
:100450000100010001000000010000000000010097
:100460000000010001000000010001000403300051
:1004700000000A036B007300360033000000140311
:100480006B006C0065007300680077006F006E0001
:10049000670000000403090409023B00020100A0F8
:1004A000FA09040000010301010009211101000102
:1004B0002240000705810308000A09040100010326
:1004C00000000009211101000122810007058203BB
:1004D00020000A1201100100000008EDFE61300149
:1004E000000102030105010902A10185020901A120
:1004F00000050919012905150025019505750181DA
:100500000295017503810105010930093115812525
:100510007F95027508810609381581257F9501753B
:10052000088106050C0A38021581257F950175089A
:100530008106C0C005010980A101850319012AB700
:1005400000150126B700950175108100C0050C0942
:1005500001A101850419012AA002150126A0029516
:100560000175108100C005010906A101050719E008
:1005700029E7150025019508750181029501750887
:1005800081010507190029FF150026FF0095067552
:100590000881000508190129059505750191029545
:1005A0000175039101C011241FBECFEFDAE0DEBF59
:1005B000CDBF04B603FE27C08091840290918502CE
:1005C000A0918602B09187028730904BA740B04B34
:1005D000D1F4109284021092850210928602109239
:1005E000870214BE84B7877F84BF0FB6F894A8959E
:1005F00080916000886180936000109260000FBE5F
:10060000E0E0F8E3099511E0A0E0B1E0ECEBF7E4FD
:1006100002C005900D92AA39B107D9F722E0AAE9E4
:10062000B1E001C01D92A438B207E1F70E94EF1DAE
:100630000C94B4230C9400000C94E30581E008951D
:1006400081E008950C94200308950C9424031F93D3
:10065000CF93DF9300D000D00F92CDB7DEB74983A0
:100660005A836B833091BC0189819A8131111DC0FD
:100670006623B9F02223A9F00E94BB14182F682F1B
:1006800089819A810E94661469817A81812F0F90F5
:100690000F900F900F900F90DF91CF911F910C94BE
:1006A000D7030E949314182FEFCF0E94BB146981C7
:1006B0007A81EDCFFC01262F4081518162817381C7
:1006C00084810C942703CF93DF93EC0160E00E94B8
:1006D0005A03BE01DF91CF910C9425030E94FF15B0
:1006E000811102C00E949C160C941C030C94E50519
:1006F00008950C94780381E008950C947B03CF93C4
:10070000C82F0E9479038C2FCF910C947D030895FC
:100710000E94940F0E9487032FEF84E39CE02150F6
:1007200080409040E1F700C000000C94B9170F938F
:100730001F93CF93DF93EC0161E00E945A038C0179
:10074000BE010E942203882329F1BE01C8010E9434
:1007500000088823F9F0BE01C8010E9441088823DF
:10076000C9F0BE01C8010E946409882399F08A81FA
:10077000882339F001158CE5180751F00E3D1C4512
:1007800079F0CE01DF91CF911F910F910C941E0350
:100790000E94880380E0DF91CF911F910F9108950F
:1007A0000E949C16F7CF90E080E008950895E72F0F
:1007B000F0E09AE0899FE00DF11D112483E0EE0F37
:1007C000FF1F8A95E1F7E60FF11DEE0FFF1FE455BD
:1007D000FF4F859194910895FC01EE0FFF1FE4599E
:1007E000FB4F859194910895CF93DF930E94D70397
:1007F0000E940905EC01811520E5920708F042C02E
:10080000811530E4930708F0BDC0883E910528F5B6
:10081000803E910508F09DC0883A910588F4853A9C
:10082000910508F08FC08130910509F492C00097BE
:1008300009F48FC0049708F08CC0D0E0C0E089C0F4
:100840008F3B910508F489C0805C9109C03CD105BB
:10085000A0F30E94EC03EC017CC08115904250F49F
:10086000C11581E0D80708F074C0C03FD10528F356
:10087000D0656FC0C11590E3D90708F079C0CE01EB
:100880009F70E7CF811525E5920758F5811534E56E
:10089000930708F0A6C0811542E5940750F4C115EE
:1008A00081E5D80708F471C0DC2FCC27C16FD06A6E
:1008B00050C0982F969596959E0123703327C115A9
:1008C000D34508F07FC0C1E0D0E002C0CC0FDD1FEF
:1008D0002A95E2F720E2929FC0011124C82BD92B60
:1008E0006FC0C11589E5D807A8F4C11598E5D907E7
:1008F00008F07CC0C11526E5D20708F09ECF8C2FEA
:100900000E94A005C82FD0E0DC2FCC27CC27DF71B8
:10091000D0621FC0C1153AE5D30708F46CC0CE0100
:1009200090568115904208F088CF8D2F8F710E94CC
:10093000A00590E0982F882788279F719C012C2B79
:10094000E901E6CFC55AD0E0C65BDE4FC881D0E0F2
:10095000D064CE01DF91CF910895C85AD0E0CC0F7A
:10096000DD1FC45EDE4F0990D881C02DD464F1CF65
:10097000CE019927D3FF03C0EC01D86CEACFEC017C
:10098000D06CE7CFDF70D06AE4CFCE01E4E096957B
:100990008795EA95E1F783702C2F2695269523708D
:1009A00090E2299F90011124382B8C2F8370C1E095
:1009B000D0E002C0CC0FDD1F8A95E2F7C22BD32B0B
:1009C000DC68C7CFC1E0D0E002C0CC0FDD1F2A95A4
:1009D000E2F730E2939FC0011124C82BD92BDA68CB
:1009E000B8CFD82FCC27C46FD06AB3CFDC2FCC2799
:1009F000C06FD06AAECF8C2F8F700E94A00534E0FC
:100A0000D695C7953A95E1F7CF709C2FEC01D06948
:100A1000A0CF82389105B1F1B0F48133910509F48A
:100A200075C048F48932910509F469C08A3291058C
:100A300009F473C008958533910509F459C08933C9
:100A4000910501F10895833E9105A9F138F4803EA6
:100A50009105F9F0823E910549F10895863E910590
:100A6000A9F1873E9105C9F1843E910519F52091C0
:100A7000760221FF1FC08091750284FD14C087EEAD
:100A800090E00895209175022370A1F080EE90E02F
:100A900008952091750220FD47C03091760230FF05
:100AA00009C024FF44C090E080E004C0209175029A
:100AB00022FDF7CF08952091750222FD3BC03091B1
:100AC000760230FDE3CF24FFF5CFEDCF2091750204
:100AD00023FFF0CF24FDE7CFD2CF2091750223FD75
:100AE0002CC03091760231FFEECF84EE90E0089575
:100AF0002091750225FFDECF89E290E008952091D4
:100B0000750225FFD7CF85E390E008952091750207
:100B100026FFD0CF8AE290E008952091750226FF4B
:100B2000C9CF81E390E0089589E390E0089583EED2
:100B300090E0089582EE90E0089586EE90E00895AA
:100B40009091750292FF06C0282F28712830F9F481
:100B5000877F846093FF06C0282F28712831F1F425
:100B6000877E84612091760220FF06C0382F38717D
:100B70003830D9F4877F816021FF06C0282F287183
:100B80002831D1F4877E816194FD877E0895282FD6
:100B900024712430F9F68B7F8860DCCF282F2471F4
:100BA000243101F78B7E8861DDCF382F31713130F0
:100BB00019F78E7F8860E0CF282F2171213121F72E
:100BC0008E7E8861E1CF089508950C94E405E82FA6
:100BD000F0E0EB59FD4F80810895089580EA8A95F1
:100BE000F1F7089508950E944E07809100018091C9
:100BF000000195E0811190E09093700285E0891BDF
:100C000080936F02A5E5B1E061E070E08D91E82F7F
:100C1000E295EF70F0E041A18F709B0101C0220FBF
:100C20008A95EAF7922F9095942391A382A1822B23
:100C300082A381E0AA35B80749F7ADE4B1E061E0ED
:100C400070E08D91E82FE295EF70F0E041A18F7098
:100C50009B0101C0220F8A95EAF7922F9095942369
:100C600091A382A1822B82A381E0A535B80749F721
:100C7000EBE5F2E0A5E6B2E085E692E011921D9286
:100C80008E179F07D9F785E00E94F9060E946E0330
:100C90000C9458070E9430078823F9F080916F0266
:100CA00090E08B599D4F0E946B07811113C080917A
:100CB0009A018F5F80939A01863050F0E0916F0225
:100CC000F0E0EB59FD4F10821182128213821482E0
:100CD0000C94760310929A01FBCF8091700290E001
:100CE0008B599D4F0E9484070C94F2058F929F921E
:100CF000AF92BF92CF92DF92EF92FF920F931F932A
:100D0000CF93DF9385E5A82E81E0B82E0BE512E0A6
:100D1000912CCC24C394D12CF50181915F01C82F73
:100D2000C295CF70D0E099A18F70760101C0EE0C12
:100D30008A95EAF7892F8E2989A38AA18E2C80941F
:100D400088218AA30E94EE05EDE4F1E050E040E046
:100D500020E03191A32FA295AF70B0E090968C91D6
:100D600090E03F7002C0959587953A95E2F780FD37
:100D70003CC08C2D042E01C0880F0A94EAF7282B62
:100D80004F5F5F4F4830510521F789A1882289A222
:100D90008AA1E82AEAA2F8018081281741F120837C
:100DA00081E0982A0F5F1F4FFAE5AF16F1E0BF060A
:100DB00009F0B2CF6091700270E06B597D4F292D20
:100DC00045E08BE592E00E94FA060E944A06892DD2
:100DD000DF91CF911F910F91FF90EF90DF90CF9017
:100DE000BF90AF909F908F90089580E0C8CF80E033
:100DF000D8CF0895FF920F931F93CF93DF93F82ED0
:100E0000092F162FD72FC42F222349F081E080937A
:100E10009D010E947A1790939C0180939B01809181
:100E20009D018823A1F080919B0190919C010E94DB
:100E30008617069760F0EF2DF02FA12FBD2FCE0F54
:100E4000DF2FD11DEC17FD0741F410929D01DF91BA
:100E5000CF911F910F91FF90089581918D93F2CFC3
:100E600080919E01811111C08091D8008061809392
:100E7000D8008AE18A95F1F700C09091D900892FB6
:100E8000817090FF82E080939E0181E090919E01AD
:100E9000913009F080E008950C9430070E944C07CF
:100EA000809300010E94300781110C945F07089520
:100EB0000E943007811102C00C946507089561E01B
:100EC00070E081E091E00C94ED0961E070E081E078
:100ED00091E00C94F409CF93DF93D82FC92F0E948F
:100EE0008E0A009779F4ED2FFC2FDC01A056BE4F3F
:100EF0002C912193019685309105B9F781E0DF911E
:100F0000CF91089580E0FBCF30E020E0FC014191DB
:100F1000CF01F901E056FE4F40832F5F3F4F253050
:100F20003105A1F708950F931F93CF93DF93C62F39
:100F3000D42F022FFC0182818823C9F06093A7017E
:100F40000E947A179093A6018093A50180E28C0FEE
:100F5000883008F050C0C77081E001C0880FCA9582
:100F6000EAF7DF91CF911F910F910C94180D10911A
:100F7000A701161335C08091A5019091A6010E948A
:100F80008617883C910560F5C0E2CD0F1D17B9F0BA
:100F900080E2810F883040F4177081E001C0880F33
:100FA0001A95EAF70E941F0DC83048F481E09D2F82
:100FB000977001C0880F9A95EAF70E94180D802F4C
:100FC0000E94050DC830B8F4D77081E001C0880FC9
:100FD000DA95EAF7DF91CF911F910F910C941F0DD5
:100FE00080E28C0F883038F4C77081E001C0880F30
:100FF000CA95EAF7EFCFDF91CF911F910F91089536
:101000009C01CB01233F4CE5340731F190F4283D9E
:10101000FCE53F07E9F0293D4CE5340769F1273D40
:101020003C4579F426E241EE61EE0E94930780E0B0
:101030000895253FFCE53F07B9F090F0263F3C4579
:10104000B9F0FC0182818823D1F01092A7010895A4
:1010500027E245EE65EEE9CF26E241EE60EEE5CF10
:1010600027E245EE64EEE1CF26E241EE62EEDDCF0F
:1010700027E245EE66EED9CF28E241E0EBCF81E0F2
:101080000895CF93DF93EC01FB018281882309F45B
:1010900019C1C230FCE5DF07C0F1C6319CE5D907B4
:1010A00030F09E012A5F3C452930310570F50E94E1
:1010B00012169093760280937502C031ECE5DE073C
:1010C00009F4CFC008F05BC0C8308CE5D80709F43C
:1010D000B6C088F5C430ECE5DE0709F4A8C0C0F45A
:1010E000C2308CE5D80709F49CC0809175028260FB
:1010F000C330DC4509F498C0809175029091760266
:101100000E9420160E94940F80E0DF91CF910895F5
:10111000809175028061C630ECE5DE0709F484C079
:10112000809175028860C730DC4508F47DC08091ED
:101130007502806279C0CC308CE5D80709F489C08B
:1011400070F4809175028C60CA30ECE5DE0709F41A
:101150006BC008F478C0809175028E7F65C0CE3078
:101160008CE5D80709F479C0809175028B7FCF3068
:10117000DC4508F459C0809175028F7E55C0CB3F85
:10118000ECE5DE0709F457C030F5C3318CE5D8072C
:1011900009F46FC078F4C131ECE5DE0709F465C0ED
:1011A000C231DC4509F0A8CF0E94940F80917502EE
:1011B0008F773AC0C5318CE5D80709F462C008F4CE
:1011C00076C0809176028160CA3FDC4509F094CFF9
:1011D0008093760291CFCF3FFCE5DF0709F44DC045
:1011E00088F4809176028D7FCD3F9CE5D90781F30D
:1011F000809176028E7FCE3FDC4550F3809176025F
:101200008360E6CFC130FDE5DF0709F459C008F47B
:1012100044C080E0C230DD4509F06ECF0E949E16CA
:101220006BCF8091750281608093750265CF80914C
:1012300075028460F9CF809176028260C9CF809177
:1012400075028064F1CF0E94940F809175028068CE
:10125000EBCF809175028D7FE7CF80917502877FFC
:10126000E3CF809175028F7DDFCF809175028F7BF8
:10127000DBCF80917502837FD7CF809176028C7F00
:10128000A7CF8091750282FB992790F921E09227E0
:1012900090FB82F990FB83F9C7CF80917602982F5B
:1012A000909591708E7F892B90FB81F991CF0E9450
:1012B000940F90917502892F97FB87F98058B4CFCE
:1012C00081E0ACCF81E021CFCF93DF93EB0186317A
:1012D0009C4511F50E9450159A81992399F08A7ABC
:1012E00091E009F490E09093A801811109C089E28E
:1012F0000E942B150E949C1580E0DF91CF910895EC
:1013000085E3F6CF8091A801811104C089E20E9493
:101310003215F0CF85E3FBCF81E0EFCF8EE1489B24
:1013200002C08150E1F7489BFECF0895589880E2B3
:101330008A95F1F7589A0895FC013BE03A95F1F748
:1013400098E020E080E031E040E14A95F1F7880F35
:10135000489B02C08160232742E04A95F1F70000D4
:1013600040E14A95F1F7915079F790E19A95F1F7BC
:1013700099B132E03A95F1F7000040E14A95F1F772
:10138000917092272081920F90830895EF92FF929F
:101390000F931F93CF93DF930F92CDB7DEB71982D0
:1013A0008C017C01E60EF11C0E151F0561F481E035
:1013B0009981911180E00F90DF91CF911F910F9152
:1013C000FF90EF9008950E948E09CE0101960E9431
:1013D0009C09F80181938F01E7CF9093AA01809334
:1013E000A901509A589A08959093AA018093A9014F
:1013F0005098589AE89AE9E6F0E080818C7F8083E3
:1014000008956150770B91E001C0990F6A95EAF752
:1014100020E031E0911108C0222391F0589A80E237
:101420008A95F1F758980895492F482339F0589A2A
:10143000232740E24A95F1F79695ECCF5898F9CFDB
:101440005898EDCFFF920F931F93CF93DF93EC014A
:101450008C01060F111DC017D10731F4DF91CF9118
:101460001F910F91FF900895F9900E94960968E0EE
:101470008F2D0E94010AEFCF1F920F920FB60F928D
:1014800011242F933F934F935F936F937F938F9389
:101490009F93AF93BF93CF93DF93EF93FF935898AE
:1014A000509AC091A901D091AA016D81662321F0C3
:1014B0008E819F810E94220A0E94960980E18A956E
:1014C000F1F758985098589A80E18A95F1F76A8117
:1014D000662309F18B819C810E94C609E881F9810C
:1014E000882311F088E001C082E080830E948E0989
:1014F000FF91EF91DF91CF91BF91AF919F918F912C
:101500007F916F915F914F913F912F910F900FBEFF
:101510000F901F901895E881F981E4CFCF93DF9366
:10152000C091A901D091AA01F894509A589885E0E9
:101530008A95F1F700005098589A80E28A95F1F761
:10154000489B0CC0509A589AE881F98181E08083C9
:10155000789481E090E0DF91CF9108956D816623CA
:1015600081F08E819F810E94C60981110AC0509A24
:10157000589AE881F98182E08083789482E090E053
:10158000EACF0E948E0980E28A95F1F75898509A26
:1015900080E18A95F1F76A81662321F08B819C8135
:1015A0000E94220A0E949609E881F98110827894AB
:1015B00090E080E0D0CF9093B0018093AF01089588
:1015C000E091AF01F091B001309721F00190F081EE
:1015D000E02D099480E00895E091AF01F091B00111
:1015E000309721F00280F381E02D09940895E09175
:1015F000AF01F091B001309739F022E0DC012C937B
:101600000480F581E02D099408952091AD01309179
:10161000AE012817390771F09093AE018093AD01A8
:10162000E091AF01F091B001309721F00680F78191
:10163000E02D099408952091AB013091AC01281759
:10164000390771F09093AC018093AB01E091AF0149
:10165000F091B001309721F00084F185E02D0994DC
:10166000089585B7806885BF85B7806885BF089570
:10167000089508950C94380B08950C943C0B0E9427
:10168000310B0E94390B0C943A0B0C9430070E94DA
:1016900071170E94F3050E94CA170C943D0BAF927C
:1016A000BF92CF92DF92EF92FF920F931F93CF934F
:1016B000DF93CDB7DEB72A970FB6F894DEBF0FBE23
:1016C000CDBF0E9476060E94450B882309F45FC0B7
:1016D00082EBA82E81E0B82E10E000E0C02E802F13
:1016E0000E94E705E82EF501D1905F01D81609F4B4
:1016F00048C080913C0281FD0E94ED0580E0FF24FE
:10170000F394DE249D2D9F21B9F18E83CF82EF20AB
:1017100081E009F480E088870E947A178160782F41
:101720009A8789874E815F8168858A850E94E90B47
:10173000F801EE54FE4F8081F826F0820E9457197E
:101740000E94E00A9091B101891791F10E94E00A8C
:101750008093B1012A960FB6F894DEBF0FBECDBFBD
:10176000DF91CF911F910F91FF90EF90DF90CF907D
:10177000BF90AF900C947F038F5FFF0C883009F00F
:10178000C1CF0F5F1F4F0A30110509F0A7CF8FEFB0
:1017900089838A831B820E947A178160782F9D83B8
:1017A0008C8349815A816B818D810E94E90BC6CF60
:1017B0002A960FB6F894DEBF0FBECDBFDF91CF9152
:1017C0001F910F91FF90EF90DF90CF90BF90AF905F
:1017D0000895CF93DF93CDB7DEB72B970FB6F8946C
:1017E000DEBF0FBECDBF4F83588769877A878B874F
:1017F0001E821D8285E0FE013796DE011196019062
:101800000D928A95E1F749815A816B817C818D81A6
:101810009E812B960FB6F894DEBF0FBECDBFDF9131
:10182000CF910C944612FC01808191810C94FD149F
:10183000CF93C82F882309F490C08238C1F40E9446
:10184000E00A81FD8AC089E30E942B150E949C1545
:101850002FEF81EE94E0215080409040E1F700C0EE
:10186000000089E30E943215CF910C949C158338B7
:10187000A1F40E94E00A80FD70C083E50E942B1550
:101880000E949C152FEF81EE94E021508040904003
:10189000E1F700C0000083E5E5CF8438A1F40E94A1
:1018A000E00A82FD5AC087E40E942B150E949C1515
:1018B0002FEF81EE94E0215080409040E1F700C08E
:1018C000000087E4CFCF8CEF8C0F813AB8F48C2FD7
:1018D0000E94E81B811141C06C2F809109019091F9
:1018E0000A010E94B516882329F08C2F0E94321518
:1018F0000E949C158C2F0E942B15B6CF80E28C0F76
:10190000883048F4C77081E001C0880FCA95EAF7B3
:101910000E945315A9CFEBE5EC0FE33040F4F0E063
:10192000E357FE4F808190E0CF910C94050BE8E5E2
:10193000EC0FE73150F4F0E0EE0FFF1FE15AFE4FDD
:1019400080819181CF910C941B0BC03F30F08C2F84
:101950000E946518CF910C944C19CF91089588235B
:1019600009F452C0823871F40E94E00A81FF4CC031
:1019700089E30E942B150E949C1589E30E94321571
:101980000C949C15833859F40E94E00A80FF3CC0F7
:1019900083E50E942B150E949C1583E5EFCF8438C8
:1019A00059F40E94E00A82FF2FC087E40E942B15A1
:1019B0000E949C1587E4E2CF9CEF980F913AF0F2D9
:1019C00090E2980F983050F4877091E001C0990F21
:1019D0008A95EAF7892F0E945915D2CF9BE5980F77
:1019E000933020F490E080E00C94050B98E5980F7C
:1019F000973120F490E080E00C941B0B803F20F0A6
:101A00000E94CD180C944C190895CF93C82F0E94B2
:101A1000180CC93349F42FEF87EE93E02150804032
:101A20009040E1F700C000008C2FCF910C94AF0CD8
:101A3000882321F00E9453150C949C150895882347
:101A400021F00E9459150C949C150895BF92CF92D5
:101A5000DF92EF92FF920F931F93CF93DF936C016E
:101A6000D62FC72FFC01058102950F70128111112D
:101A70000E9470150E944915E82E882391F01123C9
:101A8000D1F08C2F807F803421F080E28D0F883060
:101A900090F082E00E94E7150E94491591E0E82E3F
:101AA000E926BC2EB2949FE0B922EB2DF0E0EA5477
:101AB000FC4D0C945823E12CF4CF0C2F0F70C07FF9
:101AC00011F00295007F1123A9F0002359F080E264
:101AD0008D0F883010F0D11109C0802F0E9453154E
:101AE0000E949C158D2F0E94180C14C0802F0E94FC
:101AF0006315F6CF8D2F0E94AF0C002359F080E2C2
:101B00008D0F883010F0D1112CC0802F0E945915F4
:101B10000E949C152B2D2850330B2430310520F4C6
:101B20000E94E00A0E947F03EE2009F49EC10E94F9
:101B3000451580FD9AC1F60112820E943F150E9450
:101B4000CA13C6010E94560F0E943F15DF91CF9124
:101B50001F910F91FF90EF90DF90CF90BF900C946A
:101B6000EB13802F0E946915D3CFFC2FFF70FF2E3F
:101B7000C07FC03219F0F29480EFF822DD2369F0C3
:101B8000D13049F1112391F1002351F1F601858102
:101B900080FFA8CF8F70858323C0112381F00111AE
:101BA00006C00E9483158F290E94180DB3CF013003
:101BB000C1F70E9483158F290E948915ABCF0111AF
:101BC00006C00E9492158F2D0E941F0DA3CF0130D9
:101BD00009F4A0CFF6CF112329F0063008F09ACFF0
:101BE0008F2DE2CF053008F095CFEDCF002359F3CC
:101BF000D93349F4FFEF27EE33E0F1502040304075
:101C0000E1F700C000008D2F0E94AF0C83CF8C2F16
:101C100086958695837069F0813009F07BCF8D2F92
:101C20009C2F9370111102C090E080E00E941B0B6A
:101C300071CF8D2F9C2F9370111102C090E080E026
:101C40000E94050B67CF8D2F112329F00E94651884
:101C50000E944C195FCF0E94CD18FACF8C2F837051
:101C600009F041C0111156CF4D2F4295469547704E
:101C7000440F440F0D2F0F7010E030E020E0042ED1
:101C800004C0000F111F221F331F0A94D2F760E017
:101C900070E0CB01D4FF0FC06FE070E080E090E017
:101CA00004C0660F771F881F991F4A95D2F7609569
:101CB000709580959095C695C695C370602B712BD5
:101CC000822B932BC23049F058F4C13019F00E9496
:101CD0007C1320CF0E946A131DCF0E948E131ACF4F
:101CE0000E94681317CF8695112311F08C2F8170F5
:101CF000882309F40FCF4D2F429546954770440F26
:101D0000440F0D2F0F7010E030E020E0042E04C0CF
:101D1000000F111F221F331F0A94D2F760E070E0FA
:101D2000CB01D4FF0FC06FE070E080E090E004C012
:101D3000660F771F881F991F4A95D2F76095709597
:101D400080959095C695C695C370602B712B822B9C
:101D5000932BC23049F058F4C13019F00E9441145D
:101D6000D9CE0E942F14D6CE0E945314D3CE0E94F7
:101D7000A413D0CECF70112329F08C2F0E94CA1348
:101D80008D2F12CF8D2F0E941F0D8C2F0E94EB13D1
:101D9000C1CED23F89F160F4D03FC9F0D13F29F1E3
:101DA000112309F442C001119DCE8C2F8F7121C0E7
:101DB000D33F39F1D43FA1F7112369F1CF718C2FB3
:101DC0000E94CA1363E08C2F0E94D215A3CE112368
:101DD00041F0053008F09ECE8C2F8F710E940E14BA
:101DE00099CE063008F096CEF7CF8C2F8F71112345
:101DF00069F20E94CA138ECE8C2F8F711123C9F302
:101E0000C5CF112329F08C2F8F710E94B51382CE7C
:101E10000E94B0137FCE81E00E94E715023008F4E3
:101E200079CE82E00E94E71575CE002359F0D933B0
:101E300009F0E9CE8FEF97EEE3E081509040E0406B
:101E4000E1F7DFCE8C2F8F71A1CF4C2F4F706D2F0C
:101E5000C6010E94D3030E94E0125CCE4C2F4F704B
:101E60006D2FC6010E94D60355CEDF91CF911F91F1
:101E70000F91FF90EF90DF90CF90BF9008950F9358
:101E80001F93CF93DF93EC01688179818A810E944F
:101E900007158C010E9465140E946713B801CE01DA
:101EA000DF91CF911F910F910C94260DCF93DF936B
:101EB000EC018B819C81892B29F088819981892370
:101EC0008F3F59F4DF91CF910895CE010E943F0FCB
:101ED000CE01DF91CF910C946303CE010E94970352
:101EE0008111F3CF0E944915882361F38A818823E9
:101EF00049F382E0DF91CF910C94E7150E947015B1
:101F00000E9480150E949C150E94711A0E944C1913
:101F100090E080E00E94050B90E080E00C941B0BA9
:101F20000E9439150C947E0F0E9460150C94900F3E
:101F3000E92FE295EF70E250EE3070F4F0E0EA53F2
:101F4000FC4D0C945823803F19F020F4883E20F477
:101F500081E00895843FE1F380E00895883EC0F376
:101F6000813FD1F7F5CF93FB882780F908950E9430
:101F7000FD140C94980FCF93DF9300D000D00F92F4
:101F8000CDB7DEB70F900F900F900F900F90DF91AD
:101F9000CF910895CF93DF9300D000D000D0CDB77C
:101FA000DEB726960FB6F894DEBF0FBECDBFDF9129
:101FB000CF9108951F93CF93DF93C091BD0116E099
:101FC0008091BE018C1304C0DF91CF911F910895C1
:101FD000D0E01C9FF0011D9FF00D1124E154FE4F35
:101FE0004081518162817381848195810E94CA0FF1
:101FF0002196C770E5CF4091EF015091F0016091BB
:10200000F1017091F2018091F3019091F4010C942F
:10201000CA0F2091BD019091BE0156E0291302C064
:1020200080E0089530E0529FF001539FF00D11249D
:10203000E154FE4F7181761306C07081781303C09E
:102040007281741304C02F5F3F4F2770E7CF81E088
:1020500008951F93CF93DF938091F401807FA9F4BB
:102060008091F101882389F08091BD01C091BE016A
:102070006091EF017091F001A091F201B091F30134
:10208000D62FD72316E0C81304C0DF91CF911F913C
:10209000089590E0109711F0DF3F19F401968770D2
:1020A000F2CF189F9001199F300D1124F901E154CE
:1020B000FE4F41814713F2CF40814613EFCF42815B
:1020C0004111ECCF438154814A1B5B0B483C5105C5
:1020D00028F78091F4018F7080618093F401F901F9
:1020E000EC53FE4F80818F70806180838FEE91E092
:1020F0000E94560FDF91CF911F910C94DA0F8F92AF
:102100009F92AF92BF92CF92DF92EF92FF920F9386
:102110001F93CF93DF93CDB7DEB761970FB6F894D7
:10212000DEBF0FBECDBF8C0185E0F801DE011D963C
:1021300001900D928A95E1F7D801EC901196FC90F0
:1021400011971296CC9012978FEEA82E81E0B82EA0
:102150004091F2015091F3014115510509F474C108
:102160009091EF012091F001892F82238F3F09F494
:102170006BC113968D909C901497D090F101F4014F
:10218000E41BF50BDD2009F40AC18091F401382F1E
:10219000307FE83CF10508F0C1C0311189C0DC2C6A
:1021A0002F1126C09E1124C0C11022C08F708061E3
:1021B0008093F4010E94FB0FC5010E94560F80918D
:1021C000F401D80115968C938D2D61960FB6F89475
:1021D000DEBF0FBECDBFDF91CF911F910F91FF905A
:1021E000EF90DF90CF90BF90AF909F908F90089529
:1021F0008114910429F08F2D8E218F3F09F043C166
:1022000080E080FF15C04C2D6F2D8E2D0E9409108F
:10221000882371F08FEE91E00E94560F86E0EFEE7A
:10222000F1E0DF011D928A95E9F70E94FB0F3EC0A5
:10223000892829F08F2D8E218F3F09F021C180E060
:10224000B82FB170AB2E80FF29C04C2D6F2D8E2D75
:102250000E940910B82E811121C0ED86FE868D8561
:102260009E850E94FD14292F22952F70223050F058
:10227000243078F49F7051F0F8019581907F31F40B
:10228000DB2CA2CF9F7011F08823D1F3805E8830C1
:10229000B8F3C8010E94560FBA2CF2CFCC2009F433
:1022A00093CF8091F40181608093F401D12C8CCF85
:1022B0002F1105C09E1103C0CC2009F48DC0ED86FE
:1022C000FE868D859E850E94B70F882319F1CC204C
:1022D00009F18091F401803270F02091EF0130918A
:1022E000F00138872F8319869B868A868C87CE01DA
:1022F00007960E94560F86E0F801AFEEB1E001901C
:102300000D928A95E1F70E9429100E94FB0FDD24AF
:10231000D3945ACFC8010E94560FF9CF311112C081
:10232000782D998A888AA7016C2D89890E94BB0F14
:102330008FEE91E00E94560F86E0F50111928A958A
:10234000E9F773CF2F110FC09E110DC0C1100BC044
:1023500015968C93C8010E94560F86E0F5011192E4
:102360008A95E9F731CFED86FE868D859E850E94A0
:10237000B70F882379F2CC2069F28091F401803282
:1023800008F4B9CF2091EF013091F0013A8329830D
:102390001B829D828C828E83CE010196AACFE83C5F
:1023A000F10508F043C0DC2CCC2009F4B3CF2F1189
:1023B0002CC09E112AC08091F40180FD1DC0982F71
:1023C000907FD1F015968C931597903F39F0982F08
:1023D000907F905F8F70892B15968C93C8010E9417
:1023E000560F86E0F801AFEEB1E001900D928A95AC
:1023F000E1F70E94FB0FE8CE86E0F801AFEEB1E016
:1024000001900D928A95E1F7DFCEED86FE868D85EF
:102410009E850E94B70F81116ECF8091F40181607B
:102420008093F401C8010E94560FCECE782D998A70
:10243000888AA7016C2D89890E94BB0F86E0F5016F
:1024400011928A95E9F7D5CFCC2009F463CFED86B8
:10245000FE868D859E850E94B70FD82E882309F4AD
:1024600059CF86E0F801AFEEB1E001900D928A9568
:10247000E1F78FEE91E00E94130C0E942910B9CF72
:1024800081E08C25DDCE81E08C25BBCE1F93CF93E0
:10249000DF93CDB7DEB72C970FB6F894DEBF0FBE33
:1024A000CDBF4F83588769877A878B879C87CE01FA
:1024B00007960E947F10882369F08A859B85892B67
:1024C00039F04F815885842F85238F3F09F071C0E3
:1024D00016E05FC086E0FE013796DE01119601909E
:1024E0000D928A95E1F78A859B85892B89F38885EA
:1024F0009F8189238F3F61F32091BE0130E0C901A4
:102500000196877099274091BD014817190671F40B
:102510000E94940F1092BE011092BD0186E0EFEE72
:10252000F1E0DF011D928A95E9F7D2CF96E0929F04
:10253000D001939FB00D1124A154BE4FFE013196DE
:1025400001900D929A95E1F78093BE010E94DA0FF7
:10255000BFCF819FC001112481549E4F0E947F10E4
:102560008823E9F0E091BD011E9FF0011124E154A0
:10257000FE4F4081518162817381848195810E94E7
:10258000CA0F8091BD0190E00196877099278093D2
:10259000BD018091BD019091BE018913DACF2C96C7
:1025A0000FB6F894DEBF0FBECDBFDF91CF911F9164
:1025B000089569857A858B859C850E94CA0F88CF8E
:1025C000EF92FF920F931F93CF93DF938C01892B90
:1025D00081F0F12CEE24E394E8012196F801849136
:1025E000843770F4843008F05FC08130B1F08230FD
:1025F000A1F1DF91CF911F910F91FF90EF9008957E
:10260000853709F44CC008F43DC09CE7980F90371B
:1026100080F78F770E94AF0C49C00E5F1F4FFE01FD
:10262000849190E2980F983060F48770FE2D01C07D
:10263000FF0F8A95EAF78F2F0E9473150E949C1551
:1026400002C00E94180C8F2D815030F2EFE9FFE09C
:102650003197F1F700C00000F7CF0E5F1F4FFE016A
:10266000849190E2980F983050F48770FE2D01C04D
:10267000FF0F8A95EAF78F2F0E947915DFCF0E940E
:10268000AF0CE1CF0E5F1F4FFE01C491C150D8F2D5
:102690008FE99FE00197F1F700C00000F7CF0E5FD0
:1026A0001F4FFE01F490CFCF0E94180C8E01CBCFAC
:1026B00008950C9458130E94591360932B02709341
:1026C0002C0280932D0290932E020C947E0F08957D
:1026D0000C945B130F931F9300912B0210912C020B
:1026E00020912D0230912E02602B712B822B932B87
:1026F0001F910F910C945B130F931F9300912B026A
:1027000010912C0220912D0230912E026023712312
:10271000822393231F910F910C945B130F931F93AC
:1027200000912B0210912C0220912D0230912E024B
:1027300060277127822793271F910F910C945B13B9
:102740000C9458130C94A0130E94A21360932702B8
:10275000709328028093290290932A020C947E0F92
:1027600060E070E0CB010C94A4130F931F9341E041
:1027700050E060E070E08A019B0104C0000F111F6F
:10278000221F331F8A95D2F7C901B8011F910F91FB
:102790000C94A4130F931F9341E050E060E070E0AD
:1027A00004C0440F551F661F771F8A95D2F780918A
:1027B000270290912802A0912902B0912A028A0151
:1027C0009B01082B192B2A2B3B2BC901B8011F9108
:1027D0000F910C94A4130F931F9341E050E060E01D
:1027E00070E004C0440F551F661F771F8A95D2F70B
:1027F000CB01BA0160957095809590950091270264
:10280000109128022091290230912A02602371231D
:10281000822393231F910F910C94A4130F931F9362
:1028200041E050E060E070E004C0440F551F661FB7
:10283000771F8A95D2F78091270290912802A09164
:102840002902B0912A028A019B01082719272A2709
:102850003B27C901B8011F910F910C94A4130F934A
:102860001F93009127021091280220912902309194
:102870002A02602B712B822B932B1F910F910C94AA
:10288000A4130F931F930091270210912802209107
:10289000290230912A0260237123822393231F91FE
:1028A0000F910C94A4130F931F9300912702109182
:1028B00028022091290230912A026027712782275D
:1028C00093271F910F910C94A4130895990F990FBA
:1028D000990F890F982F977041E001C0440F9A9586
:1028E000EAF786958695869595E0899FF0011124F3
:1028F000EB50FE4F30E020E070E05191DF01119786
:10290000CB01022E02C0969587950A94E2F781705A
:1029100081958527842385278C932F5F3F4F253012
:10292000310559F70895990F990F990F890F982F2D
:10293000977086958695869525E0829FF0011124F3
:10294000EB50FE4F50E040E080E0219130E0092E56
:1029500002C0369527950A94E2F721703327042E9A
:1029600001C0220F0A94EAF7822B4F5F5F4F453078
:10297000510559F70895BF92CF92DF92EF92FF92DF
:102980000F931F93CF93DF938C01C0902702D090B9
:102990002802E0902902F0902A0280912B02909167
:1029A0002C02A0912D02B0912E02C82AD92AEA2A1F
:1029B000FB2ACFE1D0E0BC2ED701C6010C2E04C00B
:1029C000B695A795979587950A94D2F780FD0EC086
:1029D000219788F7B12C8B2DDF91CF911F910F910B
:1029E000FF90EF90DF90CF90BF900895B8018C2FAB
:1029F0000E94F403019761F3EECFCF93DF93EC01D4
:102A00000E94BB14BE01DF91CF910C94F4031F937D
:102A1000CF93DF93EB019091BC01992331F0CB016F
:102A2000DF91CF911F910C94FD14882379F0CB0195
:102A30000E94BB14182F682FCE010E946614BE019D
:102A4000812FDF91CF911F910C94F403CB010E9451
:102A50009314182FF4CF682F8091090190910A01E7
:102A60000C94EB16682F8091090190910A010C9447
:102A7000ED168091090190910A010C94EF16809156
:102A80002F02859585958595089580912F028770F1
:102A9000089590912F02977081E009F480E00895E5
:102AA00080913B02089590913B02892B80933B02D9
:102AB0000895809590913B02982390933B0208954E
:102AC00010923B02089590913A02892B80933A022A
:102AD0000895809590913A02982390933A02089530
:102AE00010923A02089590913902892B809339020D
:102AF0000895809590913902982390933902089512
:102B000010923902089580913002089508950C942E
:102B1000861590913002981721F0809330020C9422
:102B20008715089580913002882329F01092300291
:102B300080E00C9487150895E0910901F0910A0155
:102B400080913B028083E0910901F0910A0180812C
:102B500090913A02892B8083E0910901F0910A015A
:102B6000808190913902892B808390913002992342
:102B700081F0E0910901F0910A018081892B808325
:102B80008091090190910A010E94A31681110E946F
:102B900092158091090190910A010C94EC0A089514
:102BA0000C94CF1598E0899F90011124622B6093BB
:102BB0002F020E94CA1380912F02859585958595D5
:102BC0000C94D01510922F0280E00C94D0159091A7
:102BD0002F028095892380932F02282F277071F46C
:102BE000282F082E000C330B9217130639F0859509
:102BF000859585950E94EB130C94E215089590E05D
:102C000080E00E947A2321E08C3E9E4F09F020E074
:102C1000822F089582E090E00C94722383E090E08C
:102C20000C947223CF9384E090E00E947223C82F0B
:102C300081E290E00E947223982F8C2FCF9108950B
:102C4000CF93C92F682F84E090E00E9480236C2FDF
:102C500081E290E0CF910C948023AB01BC018FE026
:102C600090E00C949223AB01BC0183E190E00C94C2
:102C7000922360E070E0CB010C94331660E070E0CA
:102C8000CB010E942D160C9439166CEE7EEF90E06D
:102C900080E00E949E2360E082E090E00E9480231A
:102CA00060E083E090E00E94802310922B0210925B
:102CB0002C0210922D0210922E0260E084E090E02F
:102CC0000E94802360E081E290E00E94802360E027
:102CD00085E090E00E94802360E086E090E00E9422
:102CE00080236FEF87E090E00E94802340E050E077
:102CF000BA0188E090E00E94922360E08DE090E0CD
:102D00000E94802340E050E0BA0188E190E00E94F8
:102D1000922360E087E190E00E94802340E050E051
:102D2000BA018CE190E00E94922360E080E290E0A2
:102D30000E9480230C943E160C944516682F8EE05A
:102D400090E00C9480239C012E5F3F4FAC01485FC4
:102D50005F4F80E02417350709F40895F901919138
:102D60009F019923B9F38F5FF5CF662349F0FC01EA
:102D7000329608962191261729F0E817F907D1F71E
:102D800080E0089581E008959C01FC0132969FEF58
:102D900080E04191461751F09F3F19F4411101C065
:102DA000982F8F5F8630A9F79F3F09F40895290F68
:102DB000311D97FD3A95F90162830895FC01329621
:102DC00008962191261303C0DF0111971C92E81782
:102DD000F907B9F708950C94C4160C94DE16029600
:102DE00026E0FC0111922A95E9F7089508950895C7
:102DF0000C94F7160E94F81680917B02843049F1FA
:102E000010923D0288E190E020E40FB6F894A89576
:102E1000809360000FBE2093600080E00E947F03DB
:102E20000E94F81683B7817F846083BF83B7816077
:102E300083BF7894889583B78E7F83BF0FB6F8944D
:102E4000A895809160008861809360001092600076
:102E50000FBE08950895CF930E94F6160E9476063D
:102E60000E942A17C0E08C2F0E94E705811105C03F
:102E7000CF5FCA30C1F7CF91089581E0FCCF0895AC
:102E80000C943F170E94940F0E94E00A0E947F0357
:102E90000C9440171F921FB61F9211248F939F937B
:102EA000AF93BF9380913D02811113C08091710255
:102EB00090917202A0917302B09174024196A11D8B
:102EC000B11D8093710290937202A0937302B0932C
:102ED0007402BF91AF919F918F911F901FBE1F9061
:102EE000189582E084BD93E095BD9AEF97BD8093DD
:102EF0006E0008952FB7F89480917102909172023C
:102F0000A0917302B09174022FBF08959C014FB736
:102F1000F8948091710290917202A0917302B09125
:102F200074024FBF821B930B089578941F921FB6B3
:102F30001F9211248F939F93AF93BF93809171023F
:102F400090917202A0917302B09174020196A11D3A
:102F5000B11D8093710290937202A0937302B0939B
:102F60007402BF91AF919F918F911F901FBE1F90D0
:102F7000189587E797E7909301088093000888E108
:102F80009AE00FB6F894A895809360000FBE9093D6
:102F90006000FFCF0E94FF15811102C00E949C16A5
:102FA0000E940A1680933C020E94121690937602A9
:102FB000809375020E940E16682F70E090E080E00A
:102FC0000C9468138091470280FF12C060910F013A
:102FD00085E0689FB0011124759567957595679593
:102FE00060387105A8F561157105A1F1862F089566
:102FF00081FF09C060910F0185E0689FB001112435
:1030000075956795EDCF60910F0182FD0AC08091A3
:1030100046028823D1F090910E0160910F0189172B
:1030200028F085E0689FB0011124DACF869FB001B7
:10303000112485E0869F9001879F300D1124692F10
:1030400070E0C9010E944423CBCF65E070E0CECF91
:103050008FE7089581E008958091470280FF0CC0BA
:1030600060910C0170E07595679575956795611590
:10307000710549F1862F089581FF06C060910C010A
:1030800070E075956795F3CF60910C0182FD0BC0E0
:10309000909146029923A1F060910B0180910C015F
:1030A000961738F0682F70E06038710500F38FE7ED
:1030B0000895899FC001112470E00E944423F4CF39
:1030C00061E070E0D7CF81E00895803F31F40E9445
:1030D000E217819580934B020895813F19F40E9475
:1030E000E217F8CF823F31F40E94E2178195809376
:1030F0004A020895833F19F40E94E217F8CF893FEE
:1031000029F40E942C1880934C0208958A3F21F4E0
:103110000E942C188195F7CF8B3F31F40E942C1818
:10312000819580934D0208958C3F19F40E942C18CC
:10313000F8CF843F31F48091490281608093490245
:103140000895853F21F4809149028260F7CF863F40
:1031500021F4809149028460F1CF873F21F480916E
:1031600049028860EBCF883F21F480914902806159
:10317000E5CF8D3F31F48091470281608093470213
:1031800008958E3F21F4809147028260F7CF8F3FF0
:10319000B9F7809147028460F1CF90914A02803F55
:1031A00041F480914B0287FD10924B02992371F0FC
:1031B0000895813F29F480914B021816ACF3F6CFA5
:1031C000823F81F497FFF2CF10924A0280914B0226
:1031D00090914C02892B90914D02892B49F71092C6
:1031E00046020895833F19F4191674F3DFCF893F1F
:1031F00039F480914C021816CCF610924C02D6CFBE
:103200008A3F29F480914C0287FFD0CFF6CF8B3FC5
:1032100039F480914D0287FFC9CF10924D02C6CF7D
:103220008C3F29F480914D021816BCF3BFCF843F28
:1032300031F4809149028E7F80934902B7CF853F58
:1032400021F4809149028D7FF7CF863F21F4809150
:1032500049028B7FF1CF873F21F480914902877F1C
:10326000EBCF883F21F4809149028F7EE5CF8D3FDF
:1032700031F4809147028E7F8093470297CF8E3F33
:1032800021F4809147028D7FF7CF8F3F09F08ECFD9
:10329000809147028B7FF0CF88E492E00E94F70A8A
:1032A0000E947A1790934502809344020895CF9329
:1032B000DF9300D000D000D0CDB7DEB786E0E8E4E1
:1032C000F2E0DE01119601900D928A95E1F780916E
:1032D0004A0290914B02892B81F080914202909199
:1032E00043020E948617AC0190914602992331F166
:1032F000809110018417150670F180914C02909115
:103300004D02892B91F080914002909141020E94E0
:103310008617AC0190914602992309F478C08091F8
:103320000D018417150608F480C026960FB6F89490
:10333000DEBF0FBECDBFDF91CF91089520913F0238
:103340008AE0289F9001112424173507B0F69F5F6B
:103350009093460202C09F3FD1F710924C02109208
:103360004D0280914A02181624F40E94E2178093BD
:103370004A0280914A0287FF05C00E94E2178195A8
:1033800080934A0280914B02181624F40E94E2179F
:1033900080934B0280914B0287FF05C00E94E21789
:1033A000819580934B0230914A023323A1F0209102
:1033B0004B02222381F045EB3403C00111249923F1
:1033C000F1F090934A0245EB24039001112433233A
:1033D000D1F030934B020E944C198091440290919D
:1033E0004502909343028093420286E0FE013196AB
:1033F000A8E4B2E001900D928A95E1F77ECF81E0DA
:1034000080934A02E0CF81E080934B02E4CF209189
:103410003E028AE0289F900111242417350708F006
:1034200084CF9F5F9093460202C09F3FD1F71092D6
:103430004A0210924B0280914C02181624F40E940A
:103440002C1880934C0280914C0287FF05C00E948B
:103450002C18819580934C0280914D02181624F40B
:103460000E942C1880934D0280914D0287FF05C069
:103470000E942C18819580934D0230914C02332389
:10348000A1F020914D02222381F045EB3403C001CD
:1034900011249923F1F090934C0245EB2403900101
:1034A00011243323D1F030934D020E944C198091A6
:1034B000440290914502909341028093400286E03D
:1034C000FE013196A8E4B2E001900D928A95E1F7F1
:1034D0002CCF81E080934C02E0CF81E080934D02BD
:1034E000E4CF86E0E8E4F2E0DF011D928A95E9F797
:1034F00010924602109247020895833081F128F419
:10350000813059F08230D1F00895853009F449C0F6
:10351000B8F1863009F456C0089580913F02482FD3
:10352000460F5527551F4F3F510524F4680F6093F0
:103530003F0208958FEF80933F020895809110011C
:10354000482F460F5527551F4F3F510524F4680F4C
:103550006093100108958FEF80931001089580917A
:103560000F01482F460F5527551F4F3F510524F493
:10357000680F60930F0108958FEF80930F010895F6
:1035800080910E01482F460F5527551F4F3F51057B
:1035900024F4680F60930E0108958FEF80930E015D
:1035A000089580910C01482F460F5527551F4F3F16
:1035B000510524F4680F60930C0108958FEF8093F8
:1035C0000C01089580910B01482F460F5527551F78
:1035D0004F3F510524F4680F60930B0108958FEF5E
:1035E00080930B010895833011F128F4813049F064
:1035F000823091F00895853081F120F18630C1F15B
:10360000089580913F02681720F4861B80933F0243
:10361000089510923F02089580911001681720F4D8
:10362000861B8093100108951092100108958091D7
:103630000F01681720F4861B80930F0108951092E4
:103640000F01089580910E01681720F4861B809366
:103650000E01089510920E01089580910C016817D3
:1036600020F4861B80930C01089510920C0108959C
:1036700080910B01681720F4861B80930B0108953D
:1036800010920B0108950F931F9341E050E060E00A
:1036900070E08A019B0104C0000F111F221F331F1D
:1036A0008A95D2F7C901B8010E9468131F910F9142
:1036B0000C94940F8B3109F461C040F58B3071F09C
:1036C00078F4863009F443C020F4853059F180E065
:1036D0000895873009F444C08830C9F781E008951F
:1036E000803109F459C068F48E3089F790913C021A
:1036F000892F8B7F92FF846080933C0282FD48C0BB
:10370000EDCF863159F3893149F3E1CF8A32E1F0C7
:1037100060F48732A9F020F48E31C8F28D5111C0C7
:103720008932A9F60E948803D9CF833438F48A33CA
:10373000F0F5853329F0883389F2C9CF833439F61F
:1037400080E00E94431BCACF0E949C16C7CF809185
:103750003C02807F80933C0281E080934F02089579
:1037600090913C02892F8E7F90FF816080933C0274
:1037700080FDB4CF817F80933C02B0CF90913C021A
:10378000892F8D7F91FF826080933C0281FFA6CFBD
:1037900080913C028160EFCF90913C02892F877F1E
:1037A00093FF886080933C0283FDF2CF97CF8953CB
:1037B000C8CF80E008950C94D91B8E518A3030F424
:1037C000E82FF0E0E057FE4F8081089580E00895F3
:1037D000CF93C82F80914F028130B9F0882331F008
:1037E0008230A1F110924F0280E00DC00E9450156E
:1037F0008232D1F78C2F0E94D91B81111BC08C2FD4
:103800000E945A1B8170CF9108950E9450158232F8
:1038100089F38C2F0E94DB1B81110AC0C43199F0FF
:1038200060F4CB3029F0C03169F782E080934F0219
:1038300081E0E8CF81E090E0E5CFC93221F0C833E4
:10384000B9F380E0DFCF10924F02FBCFC93219F1FC
:1038500088F4C43101F120F4C73081F181E0D3CF85
:1038600082EE8C0F8630D0F78C2F0E94DD1B809368
:103870004E02F4CFCE3401F140F46AE0CB3471F75C
:1038800080914E020E947D1AE9CFC13579F061E046
:10389000C235B1F3E3CF80914E02882319F0109224
:1038A0004E02DCCF81E080934F02ADCF61E080918A
:1038B0004E020E94F31AD2CF6AE0F9CF10923F0273
:1038C00084E180931001C0930F018CE380930E017B
:1038D00088E080930C0188E280930B01BFCF809138
:1038E00058020895CF93DF9300D00F92CDB7DEB783
:1038F00090917B02943019F589837B836A8382E0FF
:103900008093E9008FEF9091E800815095FD06C00B
:1039100095ED9A95F1F700008111F5CF8091E800BF
:1039200085FF0DC050E040E063E070E0CE010196FD
:103930000E94B31E8091E8008E778093E8000F907C
:103940000F900F90DF91CF910895CF93DF93EC010B
:103950000E94961E823011F0843031F4BE0184E062
:10396000DF91CF910C94721CDF91CF910895BC012F
:1039700083E00C94721CCF93DF93EC010E94961E9F
:10398000823011F08430F9F482E08093E9008FEF07
:103990009091E800815095FD06C095ED9A95F1F75C
:1039A00000008111F5CF8091E80085FF0CC050E048
:1039B00040E066E070E0CE010E94B31E8091E80016
:1039C0008E778093E800DF91CF910895CF93DF93B6
:1039D000EC010E94961E823011F0843039F581E0AE
:1039E0008093E9008FEF9091E800815095FD06C02B
:1039F00095ED9A95F1F700008111F5CF8091E800DF
:103A000085FF14C050E040E068E070E0CE010E9405
:103A1000B31E8091E8008E778093E80088E0FE0175
:103A2000A0E5B2E001900D928A95E1F7DF91CF9188
:103A3000089580917A02811109C00E9443200E945A
:103A4000A0208091E20084608093E20008951092AB
:103A50007A020895089508950C94421742E061ECAB
:103A600081E00E94BF1F42E261EC82E00C94BF1F24
:103A700080917D02833009F45FC030F48130C1F160
:103A8000823009F49BC008958A3009F487C08B30D6
:103A900009F46DC0893009F04EC080917C028132FA
:103AA00009F049C08091800290918102029708F04C
:103AB00042C08091E800877F8093E8008091E80011
:103AC00082FF35C09091F3008091F200029729F4B3
:103AD0008091F1008B7F813021F48091F1008093FF
:103AE00058028091E8008B778093E8000C94F31FD4
:103AF00080917C02813AF9F48091E800877F80937D
:103B0000E8008091800290918102892B61F468E045
:103B100080E592E070E00E94021F8091E8008B77C0
:103B20008093E800089560E090E080E0F3CF80911A
:103B30007B028111C3CF089580917C02813AD9F72D
:103B40008091800290918102892BA9F78091E800F1
:103B5000877F8093E8008091E80080FFFCCF809110
:103B60001B018093F1008091E8008E77BDCF80919A
:103B70007C02813201F78091800290918102892B31
:103B8000D1F68091E800877F8093E8000E94F31FC0
:103B900080917E0280931B010C94940F80917C0293
:103BA000813249F68091E800877F8093E8000E9487
:103BB000F31F80917F0280935902089580917C02C7
:103BC000813A09F0B8CF8091E800877F8093E800C0
:103BD0008091E80080FFFCCF80915902C2CF84B76A
:103BE000877F84BF0FB6F894A895809160008861A4
:103BF00080936000109260000FBE80E890E00FB6E6
:103C0000F89480936100909361000FBE0E943F0B77
:103C10000E9443200E94A0208091E2008460809353
:103C2000E20078940E9429230E94470B81E191E0F1
:103C30000E94DB0A80917B02853019F00E944F0BB5
:103C4000F9CF0E94FA1680917902882399F30E9495
:103C50002B17882379F30E949D1EECCF0C94301E05
:103C6000292F33272330310519F168F4213031052C
:103C700009F44AC02230310509F44BC090E080E0DD
:103C800030E020E028C02132310579F122323105BF
:103C9000A9F780E490E026E635E061157105D9F0DA
:103CA00081E890E025EE34E061307105A1F0E6CFC7
:103CB00099278130910599F0009741F08230910564
:103CC00089F00397D9F6ECE6F4E002C0E4E9F4E009
:103CD000849190E09F01FA01318320830895EEE7FB
:103CE000F4E0F6CFE2E7F4E0F3CF89E090E02AEAEF
:103CF00034E06115710579F389E090E023EC34E05C
:103D00006130710541F3BACF82E190E023ED34E0F8
:103D1000E2CF8BE390E028E934E0DDCF80917B02B5
:103D2000843011F482E0089581E0089580915A0270
:103D3000811102C00C948E1E089580E189BD82E13C
:103D400089BD09B400FEFDCF8091D8008F7D80939E
:103D5000D8008091E00082608093E0008091E000D4
:103D600081FDFCCF0895AF92BF92CF92DF92FF9278
:103D70000F931F93CF93DF936C01EB018A010E9495
:103D80001220F82E811123C00115110539F0F80118
:103D900080819181C81BD90BC80ED91EB12CA12CD2
:103DA0002097A9F08091E80085FD22C08091E8006D
:103DB0008E778093E80001151105A1F0F80180814C
:103DC0009181A80EB91EB182A08285E0F82E8F2DB8
:103DD000DF91CF911F910F91FF90DF90CF90BF9017
:103DE000AF9008950E9412208823D1F2F82EEFCFD1
:103DF000F60181916F018093F1002197FFEFAF1AD7
:103E0000BF0ACECFFC018091820290918302861777
:103E10009707A0F06115710529F49091E8009E774D
:103E20009093E80090E06115710551F4911108C07C
:103E30008091E80082FF34C080E00895BC01F2CF99
:103E400080917B028823C1F18530C1F18091E80027
:103E500083FD30C08091E80082FDEACF8091E800C8
:103E600080FFE1CF8091F3002091F200382F61159F
:103E7000710519F02830310558F091E028303105EE
:103E800009F090E02091E8002E772093E800CBCF56
:103E900081918093F100615071092F5F3F4FE7CF0F
:103EA00080917B02882341F0853041F08091E800C9
:103EB00083FFBECF81E0089582E0089583E00895F6
:103EC000FC01809182029091830286179707A0F0EF
:103ED0006115710529F48091E8008E778093E800E0
:103EE00090E06115710551F4911108C08091E800CE
:103EF00082FF35C080E00895BC01F2CF80917B0243
:103F00008823C9F18530C9F18091E80083FD31C073
:103F10008091E80082FDEACF8091E80080FFE1CF48
:103F20008091F3002091F200382F6115710519F08E
:103F30002830310558F091E02830310509F090E043
:103F40008091E8008E778093E800CBCF84918093B6
:103F5000F1003196615071092F5F3F4FE6CF80919C
:103F60007B02882341F0853041F08091E80083FF97
:103F7000BDCF81E0089582E0089583E00895982FF1
:103F8000973028F08F708093E90081E00895909336
:103F9000E900242F762F50E0981731F07091EC0053
:103FA0002091ED005091F00021FD02C09F5FE8CF0D
:103FB0003091EB003E7F3093EB003091ED003D7F80
:103FC0003093ED003091EB0031603093EB00709353
:103FD000EC002093ED005093F0002091EE0027FDBF
:103FE000E5CF80E0089580917C0287FF13C0809127
:103FF000E80082FF06C08091E8008B778093E8009C
:1040000004C080917B028111F2CF089580917B02E0
:104010008823D9F38091E80080FFF8CF8091E800F1
:104020008E77ECCF2091E4003091E50095E6A90170
:104030002091EC00822F817020FF06C08091E80063
:1040400080FF06C080E008952091E80022FD1AC09C
:1040500080917B02882389F0853089F08091EB0084
:1040600085FD0FC02091E4003091E5004217530711
:10407000F9F29150E1F684E0089582E0089583E03A
:10408000089581E008950E94B1200E94B920E0EED9
:10409000F0E0808181608083E8EDF0E080818F77BF
:1040A000808319BCA7EDB0E08C918E7F8C938081CA
:1040B0008F7E808310927A0208950F931F93CF937F
:1040C000DF930E94B1200E94B920C8EDD0E0888122
:1040D0008F77888388818068888388818F7D8883B3
:1040E00019BC10927B021092770210927902109202
:1040F000780200EE10E0F80180818B7F8083888158
:104100008160888342E060E080E00E94BF1FE1EEB2
:10411000F0E080818E7F8083E2EEF0E0808181603C
:104120008083808188608083F80180818E7F808396
:10413000888180618883DF91CF911F910F910895CD
:10414000E8EDF0E080818F7E8083E7EDF0E0808114
:104150008160808384E082BF81E080937A020C9446
:104160005D20E8EDF0E080818E7F80831092E20098
:1041700008951092DA001092E10008951F920F92B4
:104180000FB60F9211242F933F934F935F936F932A
:104190007F938F939F93AF93BF93EF93FF93809100
:1041A000E10082FF0BC08091E20082FF07C0809196
:1041B000E1008B7F8093E1000E9428238091DA0048
:1041C00080FF19C08091D80080FF15C08091DA006F
:1041D0008E7F8093DA008091D90080FF96C080E1C5
:1041E00089BD82E189BD09B400FEFDCF81E08093E5
:1041F0007B020E94191D8091E10080FF19C080910F
:10420000E20080FF15C08091E2008E7F8093E20083
:104210008091E20080618093E2008091D80080620A
:104220008093D80019BC85E080937B020E942B1DEF
:104230008091E10084FF2BC08091E20084FF27C0C1
:1042400080E189BD82E189BD89B5982F917080FF99
:10425000FBCF8091D8008F7D8093D8008091E100C2
:104260008F7E8093E1008091E2008F7E8093E20058
:104270008091E20081608093E20080917702882340
:1042800009F449C084E080937B020E942C1D809138
:10429000E10083FF29C08091E20083FF25C0809167
:1042A000E100877F8093E10082E080937B0210929F
:1042B00077028091E1008E7F8093E1008091E2009F
:1042C0008E7F8093E2008091E20080618093E20023
:1042D00042E060E080E00E94BF1F8091F0008860B3
:1042E0008093F0000E942A1DFF91EF91BF91AF9142
:1042F0009F918F917F916F915F914F913F912F91FE
:104300000F900FBE0F901F90189519BC10927B0252
:104310000E94271D70CF8091E30087FD93E090936A
:104320007B02B3CF1F920F920FB60F9211242F93DF
:104330003F934F935F936F937F938F939F93AF932D
:10434000BF93CF93DF93EF93FF93D091E900DF709A
:104350008091EC00C82FC17080FDC0E81092E90088
:104360008091F000877F8093F00078940E94D6219E
:104370001092E9008091F00088608093F000CD2BCE
:10438000CF70C093E900FF91EF91DF91CF91BF9182
:10439000AF919F918F917F916F915F914F913F91DD
:1043A0002F910F900FBE0F901F9018951F93CF93D2
:1043B000DF93CDB7DEB7AA970FB6F894DEBF0FBE76
:1043C000CDBF8CE792E02091F100FC012193CF0159
:1043D000F2E084389F07B9F70E94381D8091E80009
:1043E00083FF1EC180917C0290917D029A3008F07B
:1043F00017C1E92FF0E0EC52FC4D0C9458238038A3
:1044000099F0823809F00CC1809180028F7087305A
:1044100008F006C18093E9008091EB0085FB8827B6
:1044200080F91092E90006C080917802909179029B
:10443000911182609091E800977F9093E8008093BB
:10444000F1001092F1008091E8008E77E5C088239A
:1044500009F4D3C0823009F0E3C080917E0281115B
:10446000D6C0809180028F702FEF280F263008F081
:10447000D7C08093E9002091EB0020FFC8C09330A3
:1044800031F48091EB0080628093EB00C0C090918A
:10449000EB0090619093EB0021E030E001C0220F2F
:1044A0008A95EAF72093EA001092EA008091EB00E7
:1044B0008860EACF8111B4C010917E021F7780918D
:1044C000E3008078812B8093E3008091E800877F70
:1044D0008093E8000E94F31F8091E80080FFFCCFEA
:1044E0008091E30080688093E30082E0111183E013
:1044F00080937B0295C08058823008F091C08091F3
:104500007E0290917F028C3D23E09207A1F583E02B
:104510008A838AE289834FB7F894DE01139620E0FC
:104520003EE051E2E32FF0E050935700E49120FF8A
:1045300003C0E295EF703F5FEF708E2F90E0EA309E
:10454000C0F0C7968D939D932F5F243159F74FBFCD
:104550008091E800877F8093E8006AE270E0CE01F6
:1045600001960E94021F8091E8008B778093E800FB
:1045700057C0C096E7CF6091800270918102AE0172
:104580004F5F5F4F0E942E1EBC01892B09F448C06B
:104590009091E800977F9093E80089819A810E942A
:1045A000601FE1CF8038E1F58091E800877F80933C
:1045B000E800809177028093F10045CF811130C0EF
:1045C00090917E02923060F58091E800877F809321
:1045D000E800909377020E94F31F8091770288236E
:1045E00011F084E005C08091E30087FDFACF81E0FF
:1045F00080937B020E942E1D13C080917E02813029
:1046000079F481E0933009F080E080937902109290
:10461000E9008091E800877F8093E8000E94F31F03
:104620008091E80083FF0AC08091E800877F809333
:10463000E8008091EB0080628093EB00AA960FB6B1
:10464000F894DEBF0FBECDBFDF91CF911F910895CB
:104650000895CF9380917B028823A1F0C091E90057
:10466000CF709091EC00892F817090FD80E8C82B6D
:104670001092E9008091E80083FD0E94D621CF705E
:10468000C093E900CF91089597FB072E16F400948C
:1046900007D077FD09D00E945E2307FC05D03EF4C9
:1046A000909581959F4F0895709561957F4F0895DE
:1046B000EE0FFF1F0590F491E02D0994AA1BBB1B80
:1046C00051E107C0AA1FBB1FA617B70710F0A61B12
:1046D000B70B881F991F5A95A9F780959095BC0133
:1046E000CD010895F999FECF92BD81BDF89A992721
:1046F00080B50895A8E1B0E042E050E00C94A62314
:10470000262FF999FECF92BD81BDF89A019700B48A
:10471000021639F01FBA20BD0FB6F894FA9AF99A2A
:104720000FBE08950396272F0E9481230E948023A5
:10473000252F0E948123242F0C9481230196272F5B
:104740000E9481230C948023DC01CB01FC01F999A8
:10475000FECF06C0F2BDE1BDF89A319600B40D92CD
:1047600041505040B8F70895F894FFCF5D0D5D0DAE
:10477000B50DB50D070E230E8A0D8A0D2E0EBA0E3D
:10478000C90EC90E250F8A0D8A0D2E0FA30FA30F78
:10479000AC0FAC0FAE0FAC0FAC0FAC0FA30FA30F51
:1047A000B30FAC0FAC0FB30FFF212722102327222A
:0C47B00010235A227B221023D222DE228A
:1047BC00019F0100A00105A00131022808643C07FB
:1047CC00146F1CE61CBB1CB71CA51C01E200E90005
:1047DC00EA00B500B600B700CD008301CC008A0119
:1047EC0092019401210223022402250226022702AF
:1047FC002A02B300B4006F0070008182833632331A
:10480C0031F7F6F5F43534C697660000000000E287
:10481C0000E900EA00B500B600B700CD008301CC7A
:10482C00008A01920194012102230224022502260E
:10483C000227022A02B300B4006F00700081828349
:0A484C000102030405060708090035
:00000001FF
